:100000000C945A060C94A1060C94A1060C94A1061B
:100010000C94A1060C94A1060C94A1060C94A106C4
:100020000C94A1060C94A1060C944E0F0C94211074
:100030000C94401F0C94A1060C94A1060C94A106EC
:100040000C94A1060C94012C0C94A1060C94A1060E
:100050000C94A1060C9403200C94A1060C94A10608
:100060000C94A1060C94A1060C94A1060C94A10674
:100070000C94A1060C94A1060C94A1060C94A10664
:100080000C94A1060C94A1060C94A1060C94A10654
:100090000C94A1060C94A1060C94A1060C94A10644
:1000A0000C94A1060C94A1060C94A10601620262B4
:1000B0000162026200F1A100C000C000C000C000E7
:1000C000C000C000C000C000C000C0F1A200C0005D
:1000D000C000C000C000C000C000C000C000C00020
:1000E000C0088A028A02F003F004F007F007F1006A
:1000F000D000D100D2291E1F20212223242526270B
:100100002D2E314A0000002B141A0815171C180C4C
:1001100012132F302A4B000000E0041607090A0BC7
:100120000D0E0F333435284E000000E1C01D1B06B4
:1001300019051110363738E5524D000000E0E2E3B2
:1001400000000000CB002CE60050514F00000000E2
:10015000C1C2C3C4C5C6C7C8C9CA000000000000E8
:1001600000013A3B3C3D3E3F404142434445010192
:100170000000003901010101010101010146474868
:100180004C01000000010101014E015051524F018C
:100190000101010100000001C0010101014B010149
:1001A0000101010101010000000101010000000046
:1001B0000100D70100010101000000001E1F2021E5
:1001C00022232425262700000000000000013A3BDE
:1001D0003C3D3E3F4041424344450101000000395F
:1001E000A901010101010101010101014C0100000E
:1001F0000001A80101010101010101010101010149
:100200000000000101AA0101010101010101010138
:100210000101000000010101000000000100D6E61C
:100220000050514F00000000CCCDCECFD0D1D2D362
:10023000D4D500000000000000291E1F2021222329
:1002400024252627010101010000002B141A08159E
:10025000171C180C12132F302A4B000000E0041654
:1002600007090A0B0D0E0F333435284E000000E14C
:10027000C01D1B0619051110363738E5524D000018
:100280000039E3E200000000CB002CE60050514FA3
:1002900000000000CCCDCECFD0D1D2D3D4D5000039
:1002A00000000000000A002530313662003A2000CC
:1002B00025303258000A722F632030313233343502
:1002C000363738394142434445460A000A00253052
:1002D000325800626F756E6365213A20000010800D
:1002E000FF0123002300205B735D004B6579626F83
:1002F0006172642073746172742E0A005553422037
:10030000636F6E666967757265642E0A005B575D80
:10031000005B535D005B525D005B445D005B435DD1
:10032000000A002530325820006B6579626F6172D7
:10033000645F7265706F72743A20004C45443A20D5
:10034000253032580A0064656C5F6B65795F6269BD
:10035000743A2063616E27742064656C3A202530FE
:1003600032580A006164645F6B65795F6269743A50
:100370002063616E2774206164643A20253032580E
:100380000A00646F6E652E0A00626F6F746D61679C
:100390006963207363616E3A202E2E2E2000290A95
:1003A000002575002F002575005D280025640020BC
:1003B00000256400200025640020002564007C00E6
:1003C00025303258006D6F7573656B6579205B62FF
:1003D000746E7C782079207620685D287265702F95
:1003E00061636C293A205B006D6B5F776865656CB3
:1003F0005F74696D655F746F5F6D6178203D202566
:10040000640A006D6B5F776865656C5F6D61785F2E
:100410007370656564203D2025640A006D6B5F7410
:10042000696D655F746F5F6D6178203D2025640A9A
:10043000006D6B5F6D61785F7370656564203D2052
:1004400025640A006D6B5F696E74657276616C205D
:100450003D2025640A006D6B5F64656C6179203D09
:100460002025640A006D6B5F776865656C5F746951
:100470006D655F746F5F6D6178203D2025640A00B3
:100480006D6B5F776865656C5F6D61785F737065D4
:100490006564203D2025640A006D6B5F74696D659D
:1004A0005F746F5F6D6178203D2025640A006D6B7D
:1004B0005F6D61785F7370656564203D2025640A17
:1004C000006D6B5F696E74657276616C203D2025EE
:1004D000640A006D6B5F64656C6179203D20256462
:1004E0000A000A00257500363A20776865656C5F5A
:1004F00074696D655F746F5F6D61783A20000A0002
:10050000257500353A20776865656C5F6D61785FA9
:1005100073706565643A20000A00257500343A203E
:1005200074696D655F746F5F6D61783A20000A00D1
:10053000257500333A206D61785F73706565643AA4
:1005400020000A00257500323A20696E74657276C3
:10055000616C286D73293A20000A00257500313A34
:100560002064656C6179282A31306D73293A200046
:100570000A092D2056616C756573202D0A004D3EC9
:10058000004D25643E20003F00736574206465665D
:1005900061756C740A00433E2000776865726520BF
:1005A00064656C74613A20637572736F723D256483
:1005B0002C20776865656C3D25640A536565206865
:1005C0007474703A2F2F656E2E77696B697065644D
:1005D00069612E6F72672F77696B692F4D6F757325
:1005E000655F6B6579730A000A092D204D6F75737D
:1005F000656B6579202D0A4553432F713A09717552
:1006000069740A313A0964656C6179282A31306D60
:1006100073290A323A09696E74657276616C286DC5
:1006200073290A333A096D61785F73706565640AEE
:10063000343A0974696D655F746F5F6D61780A356E
:100640003A09776865656C5F6D61785F73706565A1
:10065000640A363A09776865656C5F74696D655F31
:10066000746F5F6D61780A0A703A097072696E740E
:100670002076616C7565730A643A09736574206449
:10068000656661756C74730A75703A092B310A647A
:100690006F776E3A092D310A706775703A092B3100
:1006A000300A7067646F776E3A092D31300A0A7329
:1006B00070656564203D2064656C7461202A206D3E
:1006C00061785F7370656564202A202872657065A3
:1006D0006174202F2074696D655F746F5F6D617840
:1006E000290A003F004D3E2000433E20004C256477
:1006F0000A000A092D20436F6E736F6C65202D0A66
:100700004553432F713A09717569740A6D3A096D41
:100710006F7573656B65790A000A092D204D616755
:100720006963202D0A643A0964656275670A783A3C
:10073000096465627567206D61747269780A6B3A45
:10074000096465627567206B6579626F6172640A1E
:100750006D3A096465627567206D6F7573650A7619
:100760003A0976657273696F6E0A733A0973746138
:100770007475730A633A09636F6E736F6C65206DED
:100780006F64650A302D343A096C61796572302DD9
:1007900034284631302D4634290A506175733A09A0
:1007A000626F6F746C6F616465720A653A096565A2
:1007B00070726F6D0A6E3A094E4B524F0A000A0072
:1007C0002575002E6C6576656C3A20000A0025754B
:1007D000002E656E61626C653A20000A0025303299
:1007E00058006261636B6C696768745F636F6E6603
:1007F00069672E7261773A20000A002575002E6E17
:100800006B726F3A20000A002575002E73776170B5
:100810005F6261636B736C6173685F6261636B736A
:10082000706163653A20000A002575002E737761B8
:10083000705F67726176655F6573633A20000A00D6
:100840002575002E6E6F5F6775693A20000A0025D6
:1008500075002E737761705F72616C745F7267757B
:10086000693A20000A002575002E737761705F6C6D
:10087000616C745F6C6775693A20000A0025750029
:100880002E636170736C6F636B5F746F5F636F6E09
:1008900074726F6C3A20000A002575002E73776120
:1008A000705F636F6E74726F6C5F636170736C6F97
:1008B000636B3A20000A0025303258006B65796D71
:1008C00061705F636F6E6669672E7261773A2000B0
:1008D0000A002575002E6D6F7573653A20000A00B9
:1008E0002575002E6B6579626F6172643A20000A8B
:1008F000002575002E6D61747269783A20000A0037
:100900002575002E656E61626C653A20000A00252F
:100910003032580064656275675F636F6E66696741
:100920002E7261773A20000A0025750064656661C1
:10093000756C745F6C617965723A20003F004E4BB4
:10094000524F3A206F66660A004E4B524F3A206F64
:100950006E0A0074696D65725F7265616433322876
:10096000293A202530346C580A006B6579626F6132
:1009700072645F6E6B726F3A2025580A006B65795E
:10098000626F6172645F69646C653A2025580A0081
:100990006B6579626F6172645F70726F746F636FA1
:1009A0006C3A2025580A00686F73745F6B65796232
:1009B0006F6172645F6C65647328293A2025580A58
:1009C000000A092D20537461747573202D0A0047A5
:1009D00043433A20362E332E30204156522D4C4977
:1009E00042433A20322E302E30204156525F41523F
:1009F00043483A20617672350A004F5054494F4EB1
:100A0000533A204C55464120424F4F544D4147499F
:100A100043204D4F5553454B45592045585452415D
:100A20004B455920434F4E534F4C4520434F4D4D5E
:100A3000414E44204E4B524F204B45594D41505F43
:100A4000494E5F454550524F4D204C45444D415015
:100A5000204C45444D41505F494E5F454550524FF3
:100A60004D204241434B4C4947485420534F465434
:100A700050574D5F4C454420425245415448494EE1
:100A8000475F4C454420343039360A004255494CC2
:100A9000443A2035383164613261342D64697274AE
:100AA00079202830343A30393A3437204D61792072
:100AB00031352032303137290A005649443A203046
:100AC000783532353328596F756E672050696F6EEF
:100AD0006565727329205049443A203078303030AF
:100AE00032285265642053636172662049492B297C
:100AF000205645523A203078303030320A00444592
:100B000053433A20742E6D2E6B2E206B6579626FE5
:100B1000617264206669726D7761726520666F72BA
:100B2000205265642053636172662049492B0A0094
:100B30000A092D2056657273696F6E202D0A000A0E
:100B40006D6F7573653A206F66660A000A6D6F7582
:100B500073653A206F6E0A000A6B6579626F617285
:100B6000643A206F66660A000A6B6579626F61728B
:100B7000643A206F6E0A000A6D61747269783A20D7
:100B80006F66660A000A6D61747269783A206F6E4A
:100B90000A000A64656275673A206F6E0A000A648B
:100BA000656275673A206F66660A000A0A626F6FAF
:100BB000746C6F616465722E2E2E2000433E2000FF
:100BC0006565636F6E6669673A0A000000000000A1
:100BD00000000000000101010202020303040405F9
:100BE000050606070808090A0B0B0C0D0E0F10115D
:100BF0001213151617191A1B1D1E2022232527292B
:100C00002B2D2F313335383A3D3F4244474A4D5022
:100C10005356595C5F6266696C7074777B7E82861E
:100C20008A8E9195999DA1A5A9ADB0B4B8BCC0C359
:100C3000C7CBCED2D5D8DBDFE2E4E7EAECEFF1F3C5
:100C4000F5F7F8FAFBFCFDFEFFFFFF6261636B6CDA
:100C50006967687420737465703A2025750A0062AC
:100C600061636B6C6967687420746F67676C653A61
:100C70002025750A006261636B6C69676874206384
:100C80007573746F6D2064656372656173653A2076
:100C900025750A006261636B6C696768742063750F
:100CA00073746F6D20696E6372656173653A202598
:100CB000750A000011241FBECFEFDAE0DEBFCDBF02
:100CC00004B603FE27C08091420490914304A09192
:100CD0004404B09145048730904BA740B04BD1F409
:100CE000109242041092430410924404109245045E
:100CF00014BE84B7877F84BF0FB6F894A8958091FF
:100D00006000886180936000109260000FBEE0E098
:100D1000F8E3099513E0A0E0B1E0E6EDF5E602C0E6
:100D200005900D92A034B107D9F724E0A0E4B3E018
:100D300001C01D92A234B207E1F70E940E0D0C947F
:100D4000E9320C940000FF93EF93E0914003F0919F
:100D50004103309709F00995EF91FF910895FC0147
:100D60008591803011F0EFDFFBCF0895FF27E0E29F
:100D700030E247FF0CC0419597FF09C0EDE2609556
:100D8000709580959095611D711D811D911D27FFA6
:100D900002C0219530E350E2AA27660F771F881F13
:100DA000991FAA1FA41710F0A41B63955A95A9F7C1
:100DB000AA3008F0A95FA05DAF93F39561157105A6
:100DC0008105910541F7ED3211F4EF93F395F21798
:100DD00018F43F93F395FBCF8F91B5DFFA95E1F7C8
:100DE0000895E991F9918591803021F0853219F0CB
:100DF000AADFF9CF089520E0E89455915532C1F368
:100E0000503311F4689455915A3348F4505390F389
:100E1000220F022E220F220F200D250FF4CF0EF4E9
:100E2000219589919991533619F3533729F1533507
:100E300059F1BC0188279927E8945C3621F48991FF
:100E4000999168945591543639F446EF7EF077FFC6
:100E50000DC08FEF9FEF0AC055374AE039F0583583
:100E600040E121F0523642E009F00895FF93EF93FC
:100E70007DDFEF91FF91B7CFFF93EF93FC0181915D
:100E80008030B9F360DFFBCFFF93EF9368DFF1CFE2
:100E9000DF93CF93CDB7DEB72596A3DFCF91DF9158
:100EA0000895611104C0FC018281811103C080E0BA
:100EB00090E008958CEA90E0089580EB91E0089529
:100EC00080E290E00895462F672F0C94A430805C58
:100ED0000E949830089585EF90E0089585EB90E0AA
:100EE000089586E0089582E1089580E885BF85BF72
:100EF0000E94700A84B1876084B980B38C7080BB13
:100F000081B3836F81BB8AB11AB88BB18FEF8BB974
:100F100084B1877884B985B1886785B9EAE5F3E05B
:100F2000A2E4B3E011921192119211921D921D92BE
:100F30001D921D9283E0E237F807A1F70895DF9232
:100F4000EF92FF920F931F93CF93DF9302E413E08E
:100F5000E801D12CD0FEF3C02A9AD1FEF2C0299A22
:100F6000D2FEF1C0289A80EA8A95F1F78FB1829576
:100F70008F7091E0892780FBEE24E0F8F12C7999BD
:100F8000E4C082E090E08E299F297899E1C024E0B6
:100F900030E0822B932B1B99DEC028E030E0822BBF
:100FA000932B4899DBC020E130E0822B932B4999A9
:100FB000D8C020E230E0822B932B4C99D5C020E49E
:100FC00030E0822B932B4D99D2C020E830E0822B69
:100FD000932B4E99CFC020E031E0822B932B29B187
:100FE000022E000C330B209530952227330F221F41
:100FF0003327322F2227330F822B932B2FB1022E30
:10100000000C330B209530952227330F221F3327F6
:10101000322F2227330F330F822B932B7E99ADC0B3
:1010200020E038E0822B932B4A99AAC020E030E1DF
:10103000822B932B4B99A7C020E030E2822B932B7D
:101040001E99A4C020E030E4822B932B092E000CC3
:10105000AA0BBB0B1D999DC040E050E860E070E01A
:10106000842B952BA62BB72B1C9997C040E050E002
:1010700061E070E0842B952BA62BB72B7D9991C056
:1010800040E050E062E070E0842B952BA62BB72B5C
:10109000488159816A817B81481759076A077B0714
:1010A00069F188839983AA83BB8380910001882397
:1010B00011F18091FD0380FF04C083ED92E00E9456
:1010C000AF068091FD0380FF0EC0809100011F924A
:1010D0008F938EEC92E09F938F930E9448070F901E
:1010E0000F900F900F908091FD0380FF04C08CEC57
:1010F00092E00E94AF0685E0809300012A9A299A27
:10110000289AD394249696E0D91224CF8091000196
:10111000882361F0815080930001882309F445C041
:10112000AFE9BFE01197F1F700C0000081E0DF9167
:10113000CF911F910F91FF90EF90DF9008952A9823
:101140000CCF29980DCF28980ECF80E090E01BCFD0
:1011500020E030E01ECF20E030E021CF20E030E082
:1011600024CF20E030E027CF20E030E02ACF20E07D
:1011700030E02DCF20E030E030CF20E030E052CF23
:1011800020E030E055CF20E030E058CF20E030E0E4
:101190005BCF40E050E0BA0163CF40E050E0BA01DD
:1011A00069CF40E050E0BA016FCFEAE5F3E08AE5AD
:1011B00093E0D8014D915D916D917D918D014193A9
:1011C0005193619371938A179B0799F7AFCF94E07E
:1011D000899FF0011124E65AFC4F60817181828160
:1011E00093810895CF92DF92EF92FF920F931F9316
:1011F000CF93DF9385EB92E00E94AF068AE5E82E5D
:1012000083E0F82EC0E0D0E090EBC92E92E0D92E1A
:1012100007EA12E0DF93CF93DF92CF920E94480754
:101220008DEA92E00E94AF06F70181919191A19120
:10123000B1917F010E941C1F9F938F931F930F9367
:101240000E94480785EA92E00E94AF0621968DB77A
:101250009EB708960FB6F8949EBF0FBE8DBFC630DE
:10126000D105C1F6DF91CF911F910F91FF90EF90C3
:10127000DF90CF900895CF93C82F873068F48430E3
:1012800048F58130B8F40E94CD2B0E94F92B0E94C2
:10129000932BCF910C94792B873049F1883099F7B3
:1012A0000E946F2B0E948D2B0E94C72B0E94F92B4E
:1012B00081E026C00E946F2B0E948D2B0E94CD2BB7
:1012C0000E94F92BEC2FF0E0E352FD4F8491CF9177
:1012D0000C94A22B0E946F2B0E948D2B0E94CD2B71
:1012E0000E94F32B86E08C1BCF910C94FE2B0E9466
:1012F0006F2B0E948D2B0E94C72B0E94F92B80E040
:101300000E94E12B83E0CF910C94F02BE82FF0E0CA
:10131000EE0FFF1FEF51FD4F8591949108953F9A75
:10132000479A6E9A769A279A2F980895813031F0CD
:1013300018F0823029F00895479808957698089516
:101340002F9A0895813031F018F0823029F00895F5
:10135000479A0895769A08952F9808953E9846984A
:10136000089546988FE99CE80197F1F700C00000C6
:10137000469A8FE496E40197F1F700C000000895C3
:1013800046988FEB98E00197F1F700C00000469A6D
:10139000089598E04698EFEBF8E03197F1F700C038
:1013A0000000469A80FF0AC0EFEFF8E13197F1F7AD
:1013B00000C000008695915069F70895EFEBF8E0C2
:1013C0003197F1F7F5CFCF93C82F892F0E94C90924
:1013D0008C2FCF910C94C9098FEE90E00C94E30907
:1013E000CF93C82F8F3F89F0F8943E9A0E94B1099D
:1013F0000E94EC098C2F0E94C9098C2F80950E94B5
:10140000C9090E94C0093E987894CF91089587E059
:1014100090E00E94B8328093720308956091720345
:1014200087E090E00C94C632882329F0813009F4DB
:101430003BC08FEF0895862F90E08031910508F032
:1014400033C0FC01EA5DF54F0C949E32620A360A05
:10145000380A3A0A3C0A3E0A400A420A440A460A44
:10146000480A4A0A4C0A4E0A500A520A84E0089571
:1014700085E0089586E0089588E0089589E008955C
:101480008AE008958CE008958DE008958EE0089537
:1014900080E1089581E1089582E1089584E108954D
:1014A00085E1089586E10895613041F068F0623089
:1014B00039F0633009F0BDCF87E108958FE00895DA
:1014C00083E1089587E008958BE008958091720389
:1014D000682F6F70829587700E94140A0C94F0092F
:1014E0006A9A0E94AE090E94070A809172038F3F98
:1014F00021F4109272030E940E0A80917203881FD9
:101500008827881F8E5F0E94F0090E94660A729ADF
:1015100008956A98729808950C94700A80918603D1
:1015200008959FB7F894109275039FBF9091370468
:10153000943009F049C02091E9002F709091EC009F
:1015400090FD30C090E0922B24E02093E9002091A0
:10155000EB0020FF36C02091EE0027FF32C0209123
:101560007303222321F02091E80025FF2AC0109266
:10157000730326E03091E80035FF16C08093F10038
:101580008091E80085FD29C08091E80080FFFCCFB4
:101590008091E8008E778093E8009F709093E90037
:1015A00080E0089590E8CFCF30913704343049F48B
:1015B0003091EB0035FD05C0215041F481E080936E
:1015C00073039F709093E9008FEF0895EFE9FFE0B8
:1015D0003197F1F700C00000CDCF8FB7F89421E02C
:1015E000209375038FBFD9CFCF93DF9300D01F9285
:1015F000CDB7DEB79C0180913704843019F593E0B4
:1016000099833B832A839093E9008FEF9091E800C0
:10161000815095FD06C095ED9A95F1F70000811176
:10162000F5CF8091E80085FF0DC040E050E063E019
:1016300070E0CE0101960E94C70D8091E8008E7780
:101640008093E8000F900F900F90DF91CF91089555
:10165000CF93DF9300D01F92CDB7DEB72091370430
:10166000243021F522E029839B838A8383E08093C1
:10167000E9008FEF9091E800815095FD06C095ED4F
:101680009A95F1F700008111F5CF8091E80085FF70
:101690000DC040E050E063E070E0CE0101960E9492
:1016A000C70D8091E8008E778093E8000F900F902F
:1016B0000F90DF91CF9108959C0180913704843081
:1016C000F9F482E08093E9009FEF8091E800915067
:1016D00085FD06C085ED8A95F1F700009111F5CFE3
:1016E0008091E80085FF0CC040E050E065E070E0CC
:1016F000C9010E94C70D8091E8008E778093E800B1
:101700000895CF93DF93EC0180913704843079F50D
:1017100080910B01882371F180910C01882351F194
:1017200085E08093E9008FEF9091E800815095FD6E
:1017300006C095E19A95F1F700008111F5CF8091EF
:10174000E80085FF14C040E050E060E170E0CE01A9
:101750000E94C70D8091E8008E778093E80080E1B9
:10176000FE01A6E7B3E001900D928A95E1F7DF91C3
:10177000CF91089581E08093E9008FEF9091E80088
:10178000815095FD06C095ED9A95F1F70000811105
:10179000F5CF8091E80085FFEACF40E050E068E0B7
:1017A00070E0D5CF8DE193E00E94AF0680913604C2
:1017B000811109C00E94D50E0E94300F8091E20075
:1017C00084608093E200089589E193E00E94AF066F
:1017D00010923604089585E193E00C94AF062091B1
:1017E00074032F5F822F62E30E947E32992319F0E7
:1017F00020937403089510927403809175038823D5
:10180000E9F0809137048430B9F49091E9009F7039
:101810008091EC0080FD13C080E0892B94E09093D0
:10182000E9009091EB0090FF04C09091EE0097FDCD
:101830000AC08F708093E90010927503089580E8C4
:10184000ECCF1092F1009091E80095FDFACF9091C5
:10185000E80090FFEECF9091E8009E779093E8002B
:10186000E8CF42E061EC81E00E94730E42E061EC5F
:1018700082E00E94730E42E061EC83E00E94730EEE
:1018800042E261EC84E00E94730E42E161EC85E08B
:101890000C94730E80913904833009F455C030F4F0
:1018A000813071F1823009F491C008958A3009F4D1
:1018B0007DC08B3009F463C0893009F044C0809149
:1018C0003804813209F03FC080913C0490913D047E
:1018D000009711F00497B9F58091E800877F809315
:1018E000E8008091E80082FF2AC08091F100809397
:1018F00086038091E8008B778093E8000C94870E34
:1019000080913804813AF9F48091E800877F8093D0
:10191000E80080913C0490913D04892B61F460E1E2
:1019200086E793E070E00E94160E8091E8008B77C6
:101930008093E800089560E080E090E0F3CF80912C
:1019400037048111CECF089580913804813AD9F7B8
:1019500080913C0490913D04892BA9F78091E80087
:10196000877F8093E8008091E80080FFFCCF809122
:101970000B018093F1008091E8008E77BDCF8091BC
:101980003804813201F780913C0490913D04892B09
:10199000D1F68091E800877F8093E8000E94870E4F
:1019A00080913A0480930B010C94F51780913804D0
:1019B000813249F68091E800877F8093E8000E9499
:1019C000870E80913B0480938703089580913804AB
:1019D000813A09F0B8CF8091E800877F8093E800D2
:1019E0008091E80080FFFCCF80918703C2CF0895EB
:1019F0000C94F70C0C94F70C81E193E00E94AF0675
:101A00000C94F70C0E946A1F80913504882329F0FA
:101A10000E949B1F81110C94B10D089584B7877F9C
:101A200084BF0FB6F894A895809160008861809378
:101A30006000109260000FBE90E080E80FB6F8944E
:101A400080936100909361000FBE0E94FA0C0E9487
:101A50000B120E94D50E0E94300F8091E20084602C
:101A60008093E20081E99AE00E94FF1E78948091C1
:101A700037048430E1F78CEF92E00E94AF060E94B9
:101A80000D1281E091E00E947A118BEE92E00E94AB
:101A9000AF060E94F80C80913704853019F00E943F
:101AA0001D12F9CF87EE92E00E94AF060E94020D50
:101AB000F2CF0C94B21F8DE093E00E94AF060C941D
:101AC000590D292F33272330310569F158F421307E
:101AD0003105E1F02230310509F180E090E020E0AD
:101AE00030E018C02132310579F122323105A9F7F1
:101AF000653098F770E0FB01EE0FFF1FE65EFE4FCA
:101B0000208131816B5E7E4FFB011BC082E190E042
:101B100026E032E0FA013183208308958DE890E0D9
:101B200029E731E0F7CF992783309105B0F6FC0122
:101B3000EE0FFF1FEF5CFE4F20813181825D9E4FD3
:101B4000FC01808190E0E6CF653038F6E62FF0E0CA
:101B5000EE0FFF1FEC5DFE4F2081318189E090E0A8
:101B6000D9CF80E189BD82E189BD09B400FEFDCFF6
:101B70008091D8008F7D8093D8008091E0008260B2
:101B80008093E0008091E00081FDFCCF0895AF924A
:101B9000BF92DF92EF92FF920F931F93CF93DF9349
:101BA000EC018B017A010E94A60ED82E811124C06F
:101BB000E114F10439F0F70180819181081B190BC0
:101BC000C80FD91FA12CB12C01151105A9F08091C6
:101BD000E80085FD22C08091E8008E778093E800C0
:101BE000E114F104A1F0F70180819181A80EB91EE2
:101BF000B182A08285E0D82E8D2DDF91CF911F91EB
:101C00000F91FF90EF90DF90BF90AF9008950E94EA
:101C1000A60E8823C9F2D82EEFCF89918093F100C8
:101C200001501109FFEFAF1ABF0ACECF20913E0439
:101C300030913F0426173707A8F06115710529F484
:101C40002091E8002E772093E800FC0120E0611548
:101C5000710551F4211108C08091E80082FF33C062
:101C600080E00895B901F1CF809137048823B9F15C
:101C70008530B9F18091E80083FD2FC08091E800A4
:101C800082FDEACF8091E80080FFE1CF2091F30050
:101C90008091F20090E0922B6115710519F0883067
:101CA000910550F021E0089709F020E08091E800CC
:101CB0008E778093E800CBCF21912093F100615083
:101CC00071090196E9CF80913704882341F085306E
:101CD00041F08091E80083FFBFCF81E0089582E06A
:101CE000089583E008958F708093E900EBEEF0E0B3
:101CF000808181608083EDEEF0E010826093EC00E3
:101D000040838091EE00881F8827881F0895809166
:101D1000380487FF13C08091E80082FF06C08091DD
:101D2000E8008B778093E80004C08091370481112C
:101D3000F2CF0895809137048823D9F38091E80089
:101D400080FFF8CF8091E8008E77ECCF2091E400FF
:101D50003091E50085E69091EC0090FD20C09091D7
:101D6000E80092FD20C090913704992391F09530BE
:101D700091F09091EB0095FD10C04091E4005091DE
:101D8000E5004217530739F381509A0121F784E0A7
:101D9000089582E0089583E0089581E00895909188
:101DA000E80090FFE0CF80E008950E94410F0E947C
:101DB000490FE0EEF0E0808181608083E8EDF0E0A3
:101DC00080818F77808319BCA7EDB0E08C918E7FE6
:101DD0008C9380818F7E80831092360408950F93B8
:101DE0001F93CF93DF930E94410F0E94490FC8EDCC
:101DF000D0E088818F778883888180688883888114
:101E00008F7D888319BC109237041092340410928D
:101E1000350400EE10E0F80180818B7F808388819B
:101E20008160888342E060E080E00E94730EE1EE12
:101E3000F0E080818E7F8083E2EEF0E0808181603F
:101E40008083808188608083F80180818E7F808399
:101E5000888180618883DF91CF911F910F910895D0
:101E6000E8EDF0E080818F7E8083E7EDF0E0808117
:101E70008160808384E082BF81E0809336040C948B
:101E8000EF0EE8EDF0E080818E7F80831092E2001B
:101E900008951092DA001092E10008951F920F92B7
:101EA0000FB60F9211242F933F934F935F936F932D
:101EB0007F938F939F93AF93BF93EF93FF93809103
:101EC000E10082FF0BC08091E20082FF07C0809199
:101ED000E1008B7F8093E1000E94EF0B8091DA009C
:101EE00080FF19C08091D80080FF15C08091DA0072
:101EF0008E7F8093DA008091D90080FF94C080E1CA
:101F000089BD82E189BD09B400FEFDCF81E08093E7
:101F100037040E94D20B8091E10080FF19C08091AC
:101F2000E20080FF15C08091E2008E7F8093E20086
:101F30008091E20080618093E2008091D80080620D
:101F40008093D80019BC85E0809337040E94FC0C74
:101F50008091E10084FF29C08091E20084FF25C0C8
:101F600080E189BD82E189BD09B400FEFDCF809189
:101F7000D8008F7D8093D8008091E1008F7E809380
:101F8000E1008091E2008F7E8093E2008091E20088
:101F900081608093E20080913404882309F449C071
:101FA00084E0809337040E945B0D8091E10083FF01
:101FB00029C08091E20083FF25C08091E100877FE6
:101FC0008093E10082E08093370410923404809182
:101FD000E1008E7F8093E1008091E2008E7F80930C
:101FE000E2008091E20080618093E20042E060E0E4
:101FF00080E00E94730E8091F00088608093F00072
:102000000E94EB0BFF91EF91BF91AF919F918F9148
:102010007F916F915F914F913F912F910F900FBEE4
:102020000F901F90189519BC109237040E94E40B72
:1020300072CF8091E30087FD02C081E0B2CF83E0E0
:10204000B0CF1F920F920FB60F9211242F933F9390
:102050004F935F936F937F938F939F93AF93BF93B0
:10206000CF93EF93FF93C091E900CF708091EC0084
:102070001092E9008091F000877F8093F0007894BF
:102080000E945D101092E9008091F00088608093BA
:10209000F000C093E900FF91EF91CF91BF91AF9114
:1020A0009F918F917F916F915F914F913F912F9170
:1020B0000F900FBE0F901F9018951F93CF93DF9333
:1020C00000D0CDB7DEB7E8E3F4E080E494E02091FF
:1020D000F10021938E179F07D1F70E944A0C80913F
:1020E000E80083FF45C08091380490913904492F5E
:1020F00050E04A30510508F03BC0FA01EE57FF4E60
:102100000C949E328C10B110B810B110B810081198
:102110002B11B8104D115A11803879F0823841F5E1
:1021200080913C048F708093E9008091EB0085FBE7
:10213000882780F91092E90005C080913504882332
:1021400071F082E09091E800977F9093E80080938F
:10215000F1001092F1008091E8008E772BC080E0B2
:10216000F1CF282F2D7F21F48823B1F0823039F16F
:102170008091E80083FF0AC08091E800877F809308
:10218000E8008091EB0080628093EB000F900F904D
:10219000DF91CF911F91089580913A04813041F7EA
:1021A000933009F080E0809335041092E90080912B
:1021B000E800877F8093E8000E94870ED9CF809146
:1021C0003A048111F2CF80913C048F7089F28093A0
:1021D000E9002091EB0020FFE8CF933031F48091AB
:1021E000EB0080628093EB00E0CF9091EB00906178
:1021F0009093EB0021E030E001C0220F8A95EAF7CE
:102200002093EA001092EA008091EB008860EACF08
:102210008111AECF10913A041F778091E30080784E
:10222000812B8093E3008091E800877F8093E80012
:102230000E94870E8091E80080FFFCCF8091E30030
:1022400080688093E300111104C082E0809337041A
:102250008FCF83E0FBCF8058823008F089CFAE016A
:102260004F5F5F4F60913C0480913A0490913B0432
:102270000E94610DBC01892B09F47ACF9091E8008E
:10228000977F9093E80089819A810E94160E809131
:10229000E8008B778093E8006BCF803809F068CF37
:1022A0008091E800877F8093E800809134048093D8
:1022B000F10051CF81115CCF90913A04923008F037
:1022C00057CF8091E800877F8093E8009093340493
:1022D0000E94870E80913404882311F084E005C0A9
:1022E0008091E30087FDFACF81E0809337040E945C
:1022F000310C3ECF90938D0380938C030895E09131
:102300008C03F0918D03309721F00190F081E02D46
:10231000099480E00895EF92FF921F93CF93DF938B
:10232000F82E192FE0918C03F0918D033097A9F1CD
:102330000280F381E02D09958091FD0382FF2DC07D
:1023400080FF04C089E293E00E94AF06CF2DD12F19
:1023500010E183E2E82E83E0F82E8091FD0380FFF8
:102360000BC088811F928F93FF92EF920E944807C3
:102370000F900F900F900F90115021961111EDCFEB
:102380008091FD0380FF09C081E293E0DF91CF914E
:102390001F91FF90EF900C94AF06DF91CF911F91AA
:1023A000FF90EF900895E0918C03F0918D033097AA
:1023B00021F00480F581E02D0994089520918A038D
:1023C00030918B032817390771F090938B0380931A
:1023D0008A03E0918C03F0918D03309721F0068001
:1023E000F781E02D099408952091880330918903A5
:1023F0002817390771F09093890380938803E0913F
:102400008C03F0918D03309721F00084F185E02D4D
:102410000994089508950C940A120E94B81F0E940E
:1024200075070E94C8210E94FF2F0E94612E0E9402
:102430005C2B0E94252D0C9446314F925F926F9237
:102440007F928F929F92AF92BF92DF92EF92FF9214
:102450000F931F93CF93DF9300D000D01F92CDB77F
:10246000DEB70E949F072FE8E22E23E0F22E00E065
:1024700010E0D02E802F0E94E7084B015C01F7018D
:1024800041905190619071907F01641575058605AA
:102490009705B1F40F5F1F4F0630110551F78FEF0D
:1024A00089838A831B820E94C11F8160782F9D834C
:1024B0008C8349815A816B818D810E94071355C09D
:1024C0008091FD0381FD0E94F20880E090E04824A5
:1024D00059246A247B24B301A201082E04C07695F6
:1024E0006795579547950A94D2F740FF75C0898341
:1024F000DA82412C512C3201439404C0440C551C07
:10250000661C771C8A95D2F784209520A620B720D8
:1025100081E089288A288B2809F480E08B830E9437
:10252000C11F8160782F9D838C8349815A816B8183
:102530008D810E94071349815A816B817C818D8135
:102540000E94301F000F111F000F111FF801E157EB
:10255000FC4F80819181A281B38184259525A62598
:10256000B72580839183A283B3830E942F1F0E948B
:102570006A250E947F1190918E03891799F10E941C
:102580007F1180938E039091FD039570953061F4D7
:102590001F928F938BE393E09F938F930E94480742
:1025A0000F900F900F900F9080918E030F900F90CF
:1025B0000F900F900F90DF91CF911F910F91FF908F
:1025C000EF90DF90BF90AF909F908F907F906F9033
:1025D0005F904F900C94CC2E01968231910509F0BA
:1025E0007ACF58CF0F900F900F900F900F90DF91F0
:1025F000CF911F910F91FF90EF90DF90BF90AF9020
:102600009F908F907F906F905F904F900895CF93A1
:10261000DF93CDB7DEB72B970FB6F894DEBF0FBEB2
:10262000CDBF942F4F83252F588769877A878B8753
:102630004A855B85452B39F02F3F19F481E09F3F98
:1026400019F080E001C081E080FD07C04F8158850E
:1026500069857A858B850E94301FDE01119686E0A0
:10266000FD0111928A95E9F785E0FE013796019008
:102670000D928A95E1F749815A816B817C818D8128
:102680009E810E94A81A2B960FB6F894DEBF0FBE4B
:10269000CDBFDF91CF910895CF93C82F882309F440
:1026A000E0C0823879F40E947F1181FDDAC089E3AD
:1026B0000E942F1D0E94D91E89E30E94F91DCF910F
:1026C0000C94D91E833859F40E947F1180FDC9C033
:1026D00083E50E942F1D0E94D91E83E5EECF84382A
:1026E00059F40E947F1182FDBCC087E40E942F1D17
:1026F0000E94D91E87E4E1CF8CEF8C0F813A48F419
:102700008C2F0E94112A8111ACC08C2F0E942F1D8A
:10271000D6CF80E28C0F883048F4C77081E001C0CA
:10272000880FCA95EAF70E94A61EC9CF8BE58C0FC9
:10273000833078F4C53A39F0C63A41F083E890E046
:10274000CF910C94DE1181E890E0FACF82E890E01E
:10275000F7CF88E58C0F853108F083C0C83A09F4BB
:1027600041C0C93A09F441C0CA3A09F441C0CB3A60
:1027700009F441C0CC3A09F441C0CD3A09F441C052
:10278000CE3A09F441C0CF3A09F441C0C13B09F443
:1027900041C0C03B09F441C0C23B09F441C0C33B46
:1027A00009F441C0C43B09F441C0C53B09F441C030
:1027B000C63B09F441C0C73B09F441C0C83B09F41A
:1027C00041C0C93B09F441C0CA3B09F441C0CB3BFD
:1027D00009F441C0CC3B09F441C080E090E0CF91C6
:1027E0000C94F41182EE90E0FACF89EE90E0F7CFEE
:1027F0008AEE90E0F4CF85EB90E0F1CF86EB90E0AD
:10280000EECF83EB90E0EBCF84EB90E0E8CF87EB6B
:1028100090E0E5CF8CEC90E0E2CF8DEC90E0DFCF64
:1028200083E891E0DCCF8AE891E0D9CF82E991E0BA
:10283000D6CF84E991E0D3CF81E292E0D0CF83E29A
:1028400092E0CDCF84E292E0CACF85E292E0C7CF9A
:1028500086E292E0C4CF87E292E0C1CF8AE292E0C2
:10286000BECFCF910895882309F44BC0823871F40C
:102870000E947F1181FF45C089E30E942F1D0E94A5
:10288000D91E89E30E94F91D0C94D91E833859F48E
:102890000E947F1180FF35C083E50E942F1D0E949A
:1028A000D91E83E5EFCF843859F40E947F1182FF4F
:1028B00028C087E40E942F1D0E94D91E87E4E2CF22
:1028C0009CEF980F913AF0F290E2980F983050F404
:1028D000877091E001C0990F8A95EAF7892F0E94CD
:1028E000AC1ED2CF9BE5980F933020F480E090E0AF
:1028F0000C94DE11885A853120F480E090E00C942D
:10290000F4110895882321F00E94A61E0C94D91E6C
:102910000895882321F00E94AC1E0C94D91E0895BE
:10292000CF92DF92EF92FF920F931F93CF93DF939B
:1029300000D000D01F92CDB7DEB76C0185E0F60164
:10294000DE01119601900D928A95E1F7F601208142
:10295000918143815481452B39F09F3F19F481E0E7
:102960002F3F19F080E001C081E080FDB9C0F60181
:10297000F280E580E2948FE0E82229839A838981BE
:102980009A810E94ED1C8C010E94EC1C0E94FE1B8F
:10299000E12FE295EF708E2F90E0FC01EE52FB4E9E
:1029A0000C949E32E214E2141A151A159F15D215D2
:1029B00070157015E9157015CD16CD1655176A17D7
:1029C0007015D017812F807F1F70882311F012950A
:1029D000107FFF20B9F0112329F0812F0E94BA1E29
:1029E0000E94D91E802F0F900F900F900F900F9084
:1029F000DF91CF911F910F91FF90EF90DF90CF90DB
:102A00000C944C13802F0E943314112309F468C0D6
:102A1000812F0E94C01E0F900F900F900F900F906B
:102A2000DF91CF911F910F91FF90EF90DF90CF90AA
:102A30000C94D91E812F807F1F70803211F0129567
:102A4000107F002379F0013009F458C0FF2009F409
:102A500064C0EE2059F0F601858180FFC3CF8F70EE
:102A6000858304C0FF2029F1E11010C0812F0F9051
:102A70000F900F900F900F90DF91CF911F910F91BA
:102A8000FF90EF90DF90CF900C948214F1E0812FB3
:102A9000EF12EDCF0F900F900F900F900F90DF91EE
:102AA000CF911F910F91FF90EF90DF90CF900C94FA
:102AB000CB1EE11012C00E94CE1E812F0F900F90EE
:102AC0000F900F900F90DF91CF911F910F91FF907A
:102AD000EF90DF90CF900C94891481E0E812EBCF57
:102AE0000F900F900F900F900F90DF91CF911F914B
:102AF0000F91FF90EF90DF90CF900895FF2049F065
:102B0000E5E0EE1568F30E94A31E812309F4AECF21
:102B1000D4CFF4E0FE1520F3D0CFEE2071F2802F59
:102B20000F900F900F900F900F90DF91CF911F910A
:102B30000F91FF90EF90DF90CF900C943314812F82
:102B4000869586958370A9F0813051F6FF2039F182
:102B5000C80193700F900F900F900F900F90DF911E
:102B6000CF911F910F91FF90EF90DF90CF900C9439
:102B7000F411FF2089F0C80193700F900F900F900F
:102B80000F900F90DF91CF911F910F91FF90EF90D9
:102B9000DF90CF900C94DE1180E090E0EECF80E0EB
:102BA00090E0D8CF802FFF2089F00E94F1230F9072
:102BB0000F900F900F900F90DF91CF911F910F9179
:102BC000FF90EF90DF90CF900C94DD240E94592469
:102BD000EECF812F837009F06CC0F11081CF202FD0
:102BE000229526952770220F220F602F6F70C62E18
:102BF000D12CE12CF12C022E04C0CC0CDD1CEE1CDF
:102C0000FF1C0A94D2F704FF2AC06FE070E080E056
:102C100090E004C0660F771F881F991F2A95D2F78E
:102C20006095709580959095169516951370123055
:102C3000D1F060F56C297D298E299F29113051F141
:102C40000F900F900F900F900F90DF91CF911F91E9
:102C50000F91FF90EF90DF90CF900C94131C60E0E9
:102C600070E0CB01E1CF6C297D298E299F290F903F
:102C70000F900F900F900F90DF91CF911F910F91B8
:102C8000FF90EF90DF90CF900C94251C0E94131CB6
:102C9000C701B6010F900F900F900F900F90DF912A
:102CA000CF911F910F91FF90EF90DF90CF900C94F8
:102CB000011CFF2009F445C0812F8170882309F48D
:102CC0000FCF202F229526952770220F220F602FDD
:102CD0006F70C62ED12CE12CF12C022E04C0CC0C2E
:102CE000DD1CEE1CFF1C0A94D2F704FF2CC06FE021
:102CF00070E080E090E004C0660F771F881F991F86
:102D00002A95D2F7609570958095909516951695B1
:102D100013701230E1F070F56C297D298E299F29FE
:102D2000113061F10F900F900F900F900F90DF9185
:102D3000CF911F910F91FF90EF90DF90CF900C9467
:102D4000C81C8695BBCF60E070E0CB01DFCF6C295B
:102D50007D298E299F290F900F900F900F900F9033
:102D6000DF91CF911F910F91FF90EF90DF90CF9067
:102D70000C94DA1C0E94C81CC701B6010F900F907A
:102D80000F900F900F90DF91CF911F910F91FF90B7
:102D9000EF90DF90CF900C94B61C003F91F148F477
:102DA000003E10F5FF2009F47DC0EE2009F447C075
:102DB00019CE023F09F454C008F43FC0033F91F715
:102DC000FF2009F460C0812F8F710F900F900F903A
:102DD0000F900F90DF91CF911F910F91FF90EF9087
:102DE000DF90CF900C943C1C0F70812F8F71FF20CF
:102DF00021F00E94511C802F3ACE0E94721C802F1D
:102E00005DCEFF20A9F0F4E0FE1508F469CE812F15
:102E10008F710F900F900F900F900F90DF91CF91C7
:102E20001F910F91FF90EF90DF90CF900C94951C25
:102E300085E08E1508F454CEEACFFF2099F0812F5B
:102E40008F710F900F900F900F900F90DF91CF9197
:102E50001F910F91FF90EF90DF90CF900C94511C39
:102E6000FF2069F3812F8F710F900F900F900F90BB
:102E70000F90DF91CF911F910F91FF90EF90DF9016
:102E8000CF900C94721C0F900F900F900F900F909A
:102E9000DF91CF911F910F91FF90EF90DF90CF9036
:102EA0000C94371CEE20F1F23ACE412F4F70602F78
:102EB000C6010E9451070F900F900F900F900F9036
:102EC000DF91CF911F910F91FF90EF90DF90CF9006
:102ED0000C94511BF11004CE002341F0812F8F7010
:102EE000843021F0107F902F9F70192B1F701230AB
:102EF000C9F1A0F4112339F1113009F0F1CD0F908F
:102F00000F900F900F900F90DF91CF911F910F9125
:102F1000FF90EF90DF90CF900C94622D133089F1E9
:102F2000143009F0DDCD802F0F900F900F900F908F
:102F30000F90DF91CF911F910F91FF90EF90DF9055
:102F4000CF900C94F52D0F900F900F900F900F9045
:102F5000DF91CF911F910F91FF90EF90DF90CF9075
:102F60000C94362D0F900F900F900F900F90DF91D3
:102F7000CF911F910F91FF90EF90DF90CF900C9425
:102F80008E2D0F900F900F900F900F90DF91CF919B
:102F90001F910F91FF90EF90DF90CF900C94BF2D79
:102FA000412F4F70602FC6010F900F900F900F9020
:102FB0000F90DF91CF911F910F91FF90EF90DF90D5
:102FC000CF900C946F210E94C81E0E94951E0E94F3
:102FD000D91E0E940D260E94DD2480E090E00E9410
:102FE000DE1180E090E00C94F4110E94B71E0C9466
:102FF000E3170E94ED1C292F22952F702C3058F4D6
:103000002A3018F42250223050F4803E10F0803FD5
:1030100031F481E008952C3021F02F3011F080E060
:10302000089593FB882780F90895CF93DF9300D00C
:1030300000D01F92CDB7DEB70F900F900F900F907A
:103040000F90DF91CF910895CF93DF9300D000D000
:1030500000D0CDB7DEB726960FB6F894DEBF0FBE10
:10306000CDBFDF91CF9108951F93CF93DF93C09190
:10307000A70316E08091A803C81304C0DF91CF9185
:103080001F910895D0E01C9FF0011D9FF00D1124A9
:10309000E755FC4F40815181628173818481958124
:1030A0000E9424182196C770E5CF4091D903509112
:1030B000DA036091DB037091DC038091DD03909172
:1030C000DE030C9424181F93CF93DF938091DE03CB
:1030D00082958F70D1F48091DB038823B1F08091C9
:1030E000A703D091A803B091D903C091DA0340910E
:1030F000DC035091DD03A1E0BF3F09F0A0E0BA017D
:103100006095709516E08D1304C0DF91CF911F91EB
:10311000089541155105D9F1CF3FD9F120E090E054
:1031200020FD3CC0189FF001199FF00D1124E755B8
:10313000FC4F21812C1332C020812B132FC0228100
:1031400021112CC0238134812417350720F1241B41
:10315000350B283C310510F52091DE032F702061DE
:103160002093DE0326E0289FF001299FF00D112413
:10317000E255FC4F80818F708061808389ED93E000
:103180000E949014DF91CF911F910C94341821E08C
:10319000C6CF2A2FC4CF260F371FDBCF01968770EB
:1031A000B2CFAF92BF92CF92DF92EF92FF920F9386
:1031B0001F93CF93DF93CDB7DEB761970FB6F89427
:1031C000DEBF0FBECDBF8C0185E0F801DE011D968C
:1031D00001900D928A95E1F7D8014C9111965C917E
:1031E00011971296EC903091D9036091DA03809197
:1031F000DC039091DD03009739F06F3F19F421E073
:103200003F3F19F020E001C021E0B22FB170BB2E8A
:1032100020FD90C1F801C380D480A090DB03AA20D8
:1032200009F432C12091DE03C816D90610F1D60187
:10323000A81BB90BCD01FF24F394883C9105F0F055
:10324000F12C207F09F0E9C07C2DD98AC88A6E2D27
:1032500089890E94151889ED93E00E949014E9ED88
:10326000F3E086E0DF011D928A95E9F70E94551888
:103270001EC0809590958C0D9D1DDDCF822F807F87
:1032800009F084C0651325C0341323C0FE2CE1105F
:1032900020C02F7020612093DE030E94551889ED15
:1032A00093E00E9490148091DE03F80185838F2DB6
:1032B00061960FB6F894DEBF0FBECDBFDF91CF9100
:1032C0001F910F91FF90EF90DF90CF90BF90AF9044
:1032D0000895CD2839F05F3F19F481E04F3F19F090
:1032E00080E001C081E080FD24C081E08E25F82FC0
:1032F000F170FF2E80FF3FC08091A7032091A803AB
:1033000036E0821318C04D875E878D859E850E94AA
:10331000ED1C292F22952F70223008F1243030F532
:103320009F7009F1D80115969C91907FE1F4FB2CD8
:10333000BECF80E0DCCF90E0389FF001399FF00DE8
:103340001124E755FC4F6181561306C06081641358
:1033500003C06281E6120FC001968770D2CF9F70C2
:1033600011F0882321F3805E883008F3C8010E94A1
:103370009014BF2CDCCFFE2CEE2009F498CF809166
:10338000DE0381608093DE03F12C91CF651314C0BE
:10339000341312C0E11010C08091DE03F801858360
:1033A000C8010E94901486E0F801A9EDB3E00190F5
:1033B0000D928A95E1F75ACF4D875E878D859E8560
:1033C0000E94F917882309F4BFC0EE2009F4BCC09D
:1033D0002091DE03822F82958F7090E0029774F027
:1033E0008091D9039091DA0398878F831986DB86C1
:1033F000CA862C87CE0107960E94901486E0F801B9
:10340000A9EDB3E001900D928A95E1F70E9463184F
:103410000E945518FF24F3944ACF651314C0341347
:1034200012C0E11010C08091DE03F8018583C8014D
:103430000E94901486E0E9EDF3E0DF011D928A9589
:10344000E9F7FA2C34CF4D875E878D859E850E94E3
:10345000F917882309F478C0EE2009F475C020918B
:10346000DE03822F82958F7090E002973CF280916C
:10347000D9039091DA039A8389831B82DD82CC82FF
:103480002E83CE010196B8CFC816D90680F0F6017A
:10349000E81BF90BCF01883C910570F0F12C7C2DD5
:1034A000D98AC88A6E2D89890E941518D8CE809530
:1034B00090958C0D9D1DEFCFFE2CEE2009F444C09D
:1034C000651327C0341325C08091DE0380FD18C02A
:1034D000982F92959F70292F30E02115310581F0AA
:1034E000D80115968C9315972F30310509F458CFD4
:1034F0009F5F9295907F8F70892B15968C9350CFFC
:1035000086E0F801A9EDB3E001900D928A95E1F70C
:10351000CECE4D875E878D859E850E94F9178111DD
:103520006DCF8091DE0381608093DE03C8010E942D
:103530009014BDCEEE2041F04D875E878D859E852F
:103540000E94F91781115ACFC8010E94901462CFCE
:103550001F93CF93DF93CDB7DEB72C970FB6F894B8
:10356000DEBF0FBECDBF4F83588769877A878B87B1
:103570009C87CE0107960E94D118882349F19F812C
:1035800088852A853B85232B39F08F3F19F481E00C
:103590009F3F19F080E001C081E080FD08C04F81AD
:1035A000588569857A858B859C850E94241816E04C
:1035B0008091A7039091A803891343C02C960FB65E
:1035C000F894DEBF0FBECDBFDF91CF911F9108955C
:1035D00086E0FE013796DE01119601900D928A95E4
:1035E000E1F79F8188852A853B85232B39F08F3F22
:1035F00019F481E09F3F19F080E001C081E080FD77
:10360000D6CF2091A80330E0C90101968770992791
:103610004091A70350E084179507A9F196E0929F87
:10362000D001939FB00D1124A755BC4FFE013196D8
:1036300001900D929A95E1F78093A8030E943418A7
:10364000B6CF819FC001112487559C4F0E94D1188D
:10365000882309F4B3CFE091A7031E9FF001112442
:10366000E755FC4F4081518162817381848195814E
:103670000E9424188091A70390E0019687709927F3
:103680008093A70395CF0E94F5171092A80310927C
:10369000A703E9EDF3E086E0DF011D928A95E9F7E3
:1036A0008DCFDF92EF92FF920F931F93CF93DF9313
:1036B0008C01892BB1F0E12CF12CDD24D394E801AD
:1036C0002196F8018491853709F469C090F4843714
:1036D00008F057C0843008F06EC0813009F18230A4
:1036E000D9F1DF91CF911F910F91FF90EF90DF9073
:1036F0000895883709F45CC058F4863709F454C03B
:10370000873779F78E2D0E94B41E0E94D91E1FC0E4
:103710009CE7980F903728F78F770E94331417C0D3
:103720000E5F1F4FFE01849190E2980F983060F475
:103730008770FD2D01C0FF0F8A95EAF78F2F0E9439
:10374000BA1E0E94D91E02C00E944C13E8018F2DA0
:10375000811134C08E01B3CF0E5F1F4FFE018491E3
:1037600090E2980F983050F48770FD2D01C0FF0F44
:103770008A95EAF78F2F0E94C01EE3CF0E94331470
:10378000E5CF0E5F1F4FFE01C491CC23F9F28FE904
:103790009FE00197F1F700C00000C150F6CF0E5F27
:1037A0001F4FFE01F490D2CF0E94A31EE82ECFCF70
:1037B0000E94B71EAACF0E944C13C9CFEFE9FFE0C9
:1037C0003197F1F700C000008150C2CF6093E3034E
:1037D0007093E4038093E5039093E6030E94212F06
:1037E0000C94E3176093DF037093E0038093E1038D
:1037F0009093E2030E94802F0C94E31708950C9499
:10380000E61B0F931F930091E3031091E4032091B3
:10381000E5033091E603602B712B822B932B1F91D4
:103820000F910C94E61B0F931F930091E3031091EB
:10383000E4032091E5033091E603602371238223A2
:1038400093231F910F910C94E61B0F931F930091EC
:10385000E3031091E4032091E5033091E603602730
:103860007127822793271F910F910C94E61B60E02C
:1038700070E0CB010C94F21B0F931F9341E050E0DA
:1038800060E070E08A019B0104C0000F111F221F3D
:10389000331F8A95D2F7C901B8011F910F910C947B
:1038A000F21B0F931F9341E050E060E070E004C012
:1038B000440F551F661F771F8A95D2F78091DF034B
:1038C0009091E003A091E103B091E2038A019B0192
:1038D000082B192B2A2B3B2BC901B8011F910F91E3
:1038E0000C94F21B0F931F9341E050E060E070E0F6
:1038F00004C0440F551F661F771F8A95D2F7CB016E
:10390000BA0160957095809590950091DF031091B4
:10391000E0032091E1033091E203602371238223CD
:1039200093231F910F910C94F21B0F931F9341E06F
:1039300050E060E070E004C0440F551F661F771F21
:103940008A95D2F78091DF039091E003A091E10383
:10395000B091E2038A019B01082719272A273B27F8
:10396000C901B8011F910F910C94F21B0F931F9383
:103970000091DF031091E0032091E1033091E20315
:10398000602B712B822B932B1F910F910C94F21BA8
:103990000F931F930091DF031091E0032091E10347
:1039A0003091E20360237123822393231F910F91AF
:1039B0000C94F21B0F931F930091DF031091E0030F
:1039C0002091E1033091E20360277127822793273A
:1039D0001F910F910C94F21B0895CF92DF92EF92FA
:1039E000FF920F931F93CF93DF938C01C090DF035F
:1039F000D090E003E090E103F090E2038091E303D4
:103A00009091E403A091E503B091E603C82AD92A76
:103A1000EA2AFB2ACFE1D0E0D701C6010C2E04C070
:103A2000B695A795979587950A94D2F780FF10C011
:103A3000B8018C2F0E9406218130910549F0DF9159
:103A4000CF911F910F91FF90EF90DF90CF9008954D
:103A5000219710F7B80180E00E940621F0CFCF92A5
:103A6000DF92FF920F931F93CF93DF93382F8091B4
:103A70000B018823A9F180910C01882389F1832F00
:103A80008695869586958F30D0F4E0910D01F09162
:103A90000E01E80FF11D377081E090E0AC0102C02B
:103AA000440F551F3A95E2F78181842B8183DF9182
:103AB000CF911F910F91FF90DF90CF90089580914B
:103AC000FD0380FFF4CF1F923F9384E693E09F9322
:103AD0008F930E9448070F900F900F900F90E7CFA1
:103AE000E091F803C0910D01D0910E01EE2391F108
:103AF0004091FA03F091F903242FFF24FA9406E091
:103B000010E0822F022E000C990BDE01A80FB91FC6
:103B100012965C91351759F26FEFF61203C05111EE
:103B200001C0F22E0196B8010E948A32282F8F130D
:103B3000E8CF4F130FC08FEFF81221C0842F440F2E
:103B4000990B0196B8010E948A328093FA03E150E2
:103B5000E093F8038091F903082E000C990BC80F2D
:103B6000D91F3A83019666E070E00E948A32809302
:103B7000F9038091F8038F5F8093F80398CF8F2D1E
:103B80000F2C000C990B0196B8010E948A3241E07B
:103B900006E010E0C82E880FDD08DE01AC0DBD1D6B
:103BA00012965C911297552311F18F2DFF0C990BF2
:103BB000BE01680F791FFB01528312961C92019679
:103BC000B8010E948A32F82EC6010196B8010E94FF
:103BD0008A322813DFCF822F220F990B841B910981
:103BE0000696B8010E948A328093F903B3CF4F5FE3
:103BF000EBCFEF92FF920F931F93CF93DF93482F5A
:103C000080910B01882399F180910C01882379F12F
:103C1000842F8695869586958F30C0F4E0910D01AE
:103C2000F0910E01E80FF11D477081E090E001C0B6
:103C3000880F4A95EAF78095918189238183DF91E6
:103C4000CF911F910F91FF90EF9008958091FD0308
:103C500080FFF5CF1F924F9386E493E09F938F935D
:103C60000E9448070F900F900F900F90E8CFE091BF
:103C7000F803EE2321F32091FA03C0910D01D091B6
:103C80000E010091F903002E000C110B86E0E82EC6
:103C9000F12C30E0DE01A20FB31FCD010296129687
:103CA0005C91451337C0DC011C92E150E093F803AE
:103CB000E11104C01092FA031092F9034091F90344
:103CC000842F042E000C990B059666E070E00E948C
:103CD0008A322817390709F0B2CFF090FA0306E0CC
:103CE00010E0842F440F990B0596B8010E948A3288
:103CF0009C01482F0596B8010E948A32FE01E80F08
:103D0000F91F8281882319F02093F90398CF2F118E
:103D1000E8CFFACFC9010196B7010E948A32282F55
:103D20008017910709F0B5CF8ACF81E090E0E0914C
:103D30000D01F0910E01E80FF91F108201968031FC
:103D40009105A9F708958091FC0308959091FC03D3
:103D5000892B8093FC030895982F90958091FC0304
:103D600089238093FC0308958093FC0308951092A7
:103D7000FC0308959091FB03892B8093FB03089526
:103D8000982F90958091FB0389238093FB030895DE
:103D90001092FB0308958093E70308951092E703C0
:103DA000089580910C01811103C08091F80308955A
:103DB0000895E0910D01F0910E018091FC03808344
:103DC000E0910D01F0910E0180819091FB03892B10
:103DD00080839091E703992361F0E0910D01F091C8
:103DE0000E018081892B80830E94D11E8111109247
:103DF000E70380910D0190910E010C948B1190932B
:103E00004103809340030895829590E09C01220F26
:103E1000331F220F331F2C7C959587959595879599
:103E20008373282B30E0C901880F991F8A7A359552
:103E300027952575822B0895CF93DF93D92F0E9464
:103E4000041FC82F8D2F0E94041F2C2F30E0322F0B
:103E50002227A901482BCA01DF91CF910895089527
:103E6000CF93DF9300D000D01F92CDB7DEB70F9075
:103E70000F900F900F900F90DF91CF9108950895BC
:103E80001F920F920FB60F9211248F939F93AF93AF
:103E9000BF938091FE03811113C08091FF03909125
:103EA0000004A0910104B09102044196A11DB11D2E
:103EB0008093FF0390930004A0930104B093020445
:103EC000BF91AF919F918F910F900FBE0F901F9058
:103ED0001895089580913704843041F11092FE03C3
:103EE00020E488E190E00FB6F894A89580936000F4
:103EF0000FBE209360000E94890A0E94792B83B72D
:103F0000817F846083BF83B7816083BF7894889505
:103F100083B78E7F83BF0FB6F894A8958091600019
:103F2000886180936000109260000FBE08950C9429
:103F3000691F0C94691FCF930E94991F0E949F07CD
:103F40000E94971FC0E08C2F0E94E708672B682B08
:103F5000692B31F4CF5FC630B1F780E0CF9108957F
:103F600081E0FCCF0E94F5170E948C0A0C94252D4D
:103F700082E084BD93E095BD9AEF97BD80936E007B
:103F800008952FB7F8948091FF0390910004A091B9
:103F90000104B09102042FBF08952FB7F8946091E7
:103FA000FF037091000480910104909102042FBFDF
:103FB0000895CF92DF92EF92FF920F931F932FB746
:103FC000F8944091FF0350910004609101047091B6
:103FD00002042FBF6A017B01EE24FF248C0120E044
:103FE00030E0C016D106E206F30650F0481B590B2C
:103FF000CA011F910F91FF90EF90DF90CF9008952D
:1040000041505109F3CF1F920F920FB60F92112416
:104010008F939F93AF93BF938091FF039091000480
:10402000A0910104B09102040196A11DB11D8093DD
:10403000FF0390930004A0930104B0930204BF9186
:10404000AF919F918F910F900FBE0F901F90189579
:104050000E94D50EF8942FEF87EA91E62150804018
:104060009040E1F700C0000087E090EBDC01809316
:10407000420490934304A0934404B09345049CE00D
:1040800088E10FB6F894A895809360000FBE9093D6
:104090006000FFCF8D3B60F4883A70F5853A18F5E3
:1040A0008430F8F4813009F469C080E090E008952C
:1040B000883E90F4803EA8F48F3BB9F70E94F51734
:1040C0002FEF80E792E0215080409040E1F700C060
:1040D00000000E942820E9CF803F38F390E09065EF
:1040E000089590E00895853A09F44BC0863A09F4A2
:1040F0004BC083E890E40895883A09F448C0893AAF
:1041000009F448C08A3A09F448C08B3A09F448C017
:104110008C3A09F448C08D3A09F448C08E3A09F443
:1041200048C08F3A09F448C0813B09F448C0803B3D
:1041300009F448C0823B09F448C0833B09F448C0F5
:10414000843B09F448C0853B09F448C0863B09F428
:1041500048C0873B09F448C0883B09F448C0893B04
:1041600009F448C08A3B09F448C08B3B09F448C0B5
:104170008C3B09F448C080E094E4089581E090E02D
:10418000089581E890E4089582E890E4089582EE2D
:1041900094E4089589EE94E408958AEE94E40895F1
:1041A00085EB94E4089586EB94E4089583EB94E41E
:1041B000089584EB94E4089587EB94E408958CECDF
:1041C00094E408958DEC94E4089583E895E40895CB
:1041D0008AE895E4089582E995E4089584E995E4F0
:1041E000089581E296E4089583E296E4089584E2D6
:1041F00096E4089585E296E4089586E296E40895AB
:1042000087E296E408958AE296E408950E9463079F
:10421000803ED8F4803C90F5813309F454C048F4D2
:10422000893209F44AC08A3209F453C00E944A20F4
:104230000895893331F1823821F18533B9F78091BE
:10424000400485FF3EC089E2F1CF833E41F160F436
:10425000803EE9F0823E51F78091400482FF23C006
:1042600084FF1BC080E0E2CF863EF9F0873EF1F686
:104270008091400483FF1DC086EED8CF0E9467075F
:10428000089590914004937089F280EECFCF809191
:10429000400480FFFACF89E3C9CF83EEC7CF809176
:1042A000400482FFDDCF82EEC1CF8091400483FFC6
:1042B000E3CF84FDD7CF87EEB9CF8091400485FF4F
:1042C000C2CF85E3B3CF8091400486FF06C08AE267
:1042D000ADCF8091400486FFFACF81E3A7CF089548
:1042E0008F929F92AF92BF92EF92FF920F931F9384
:1042F000CF937C01C0E08C2F0E94E7084B015C014A
:1043000000E010E0D501C401002E04C0B695A795C9
:10431000979587950A94D2F780FF1EC0602F7C2F57
:1043200080E00E9406218E159F0559F0292F207EDE
:10433000392F307C11F0203A79F490E0E816F90634
:1043400059F481E0CF911F910F91FF90EF90BF90B2
:10435000AF909F908F9008950F5F1F4F023111050E
:1043600089F6CF5FC63039F680E0ECCFCF93DF938C
:10437000EC018CE290E00E947021882329F0CE01AC
:10438000DF91CF910C94702180E0DF91CF9108955F
:10439000CF930E944323811102C00E941E2389E80B
:1043A00093E00E94AF06C5E6C15009F00FC182E854
:1043B00093E00E94AF0689E290E00E94B62181114D
:1043C0003BC18AE290E00E94B621882341F00E941E
:1043D0003D230E941E230E94D0300E943B3085E086
:1043E00090E00E94B62181110E9428200E943F1F68
:1043F0000E944E238093FD0387E090E00E94B62147
:10440000882391F08BE190E00E94B621882309F483
:10441000E6C08091FD0381FB992790F921E0922766
:1044200090FB81F98093FD038091FD030E9452234C
:104430000E9460238093400480EE90E00E94B621A9
:10444000882341F080914004982F909590FB80F94B
:104450008093400489E390E00E94B621882359F0BC
:104460008091400481FB992790F921E0922790FBED
:1044700081F98093400482EE90E00E94B621882367
:1044800059F08091400482FB992790F921E092270E
:1044900090FB82F98093400486EE90E00E94B62162
:1044A000882359F08091400483FB992790F921E0FB
:1044B000922790FB83F98093400483EE90E00E9462
:1044C000B621882359F08091400484FB992790F904
:1044D00021E0922790FB84F98093400485E390E0EB
:1044E0000E94B621882359F08091400485FB9927CA
:1044F00090F921E0922790FB85F98093400481E3B5
:1045000090E00E94B621882359F08091400486FBF8
:10451000992790F921E0922790FB86F98093400437
:1045200081E190E00E94B621882359F080914004F7
:1045300087FB992790F921E0922790FB87F98093D8
:104540004004809140040E9464238091400487FBD2
:10455000882780F980930C0187E290E00E94B621C1
:10456000C82F8EE190E00E94B6218111C2608FE1D8
:1045700090E00E94B6218111C46080E290E00E9428
:10458000B6218111C86081E290E00E94B6218111BC
:10459000C06182E290E00E94B6218111C06283E294
:1045A00090E00E94B6218111C06484E290E00E94F4
:1045B000B6218823D9F1C0688C2F0E945B236C2F11
:1045C00070E080E090E0CF910C94FF1B0E949F0769
:1045D0008FE39CE90197F1F700C00000E5CE8EE083
:1045E00090E00E94B621882351F08091FD0382FB68
:1045F000992790F921E0922790FB82F913CF80E16F
:1046000090E00E94B6219091FD03882351F093FB26
:10461000882780F921E0822780FB93F99093FD039E
:1046200003CF892F809580FB90F9F8CFC111C4CFBB
:104630000E945723682FC4CFCF9108956DEE7EEF6F
:1046400080E090E00E94D43260E082E090E00E943E
:10465000C63260E083E090E00E94C63260E084E011
:1046600090E00E94C63260E085E090E00E94C63291
:1046700060E086E090E00C94C6326FEF7FEF80E060
:1046800090E00C94D43280E090E00E94C03221E0AF
:104690008D3E9E4F09F020E0822F089582E090E049
:1046A0000C94B832682F82E090E00C94C63283E01C
:1046B00090E00C94B832682F83E090E00C94C632FE
:1046C00084E090E00C94B832682F84E090E00C9481
:1046D000C63286E090E00C94B832682F86E090E015
:1046E0000C94C6328091050480FF12C060911201C3
:1046F00085E0689FB001112475956795759567955C
:1047000060387105A8F56115710581F581E008959E
:1047100081FF09C06091120185E0689FB0011124FA
:1047200075956795EDCF82FF07C06091120185E016
:10473000689FB0011124E4CF909106049923A1F061
:1047400060911101961788F72091120185E0289F4A
:1047500090011124929FA001939F500D112470E0AD
:10476000CA010E948A32CCCF65E070E0862F08959E
:104770008FE708958091050480FF0CC060911001BF
:1047800070E075956795759567956115710539F5B3
:1047900081E0089581FF06C06091100170E0759579
:1047A0006795F3CF82FF08C06091100170E0603818
:1047B000710558F38FE7089580910604882369F006
:1047C00060910F01861780F790911001899FC001B9
:1047D000112470E00E948A32EACF61E070E0862FF7
:1047E0000895803F31F40E947223819580930904DB
:1047F0000895813F19F40E947223F8CF823F31F46B
:104800000E9472238195809308040895833F19F4D0
:104810000E947223F8CF893F29F40E94BA23809323
:104820000A0408958A3F21F40E94BA238195F7CFA4
:104830008B3F31F40E94BA23819580930B04089535
:104840008C3F19F40E94BA23F8CF843F31F4809151
:1048500007048160809307040895853F21F48091C7
:1048600007048260F7CF863F21F4809107048460BB
:10487000F1CF873F21F4809107048860EBCF883F18
:1048800021F4809107048061E5CF8D3F31F4809160
:10489000050481608093050408958E3F21F4809182
:1048A00005048260F7CF8F3FB9F7809105048460DB
:1048B000F1CF803FC1F48091090487FD1092090473
:1048C0008091080481110EC08091090481110AC0F1
:1048D00080910A04811106C080910B04811102C0ED
:1048E000109206040895813F29F480910904181656
:1048F0002CF3E6CF90910804823F29F497FFE0CF94
:1049000010920804DDCF833F19F41916CCF3D8CFE9
:10491000893F39F480910A04181694F610920A041B
:10492000CFCF8A3F29F480910A0487FFC9CFF6CF01
:104930008B3F39F480910B0487FFC2CF10920B0498
:10494000BFCF8C3F29F480910B041816BCF3B8CF6D
:10495000843F31F4809107048E7F80930704B0CFA9
:10496000853F21F4809107048D7FF7CF863F21F4A6
:10497000809107048B7FF1CF873F21F4809107045A
:10498000877FEBCF883F21F4809107048F7EE5CFAE
:104990008D3F31F4809105048E7F8093050490CF84
:1049A0008E3F21F4809105048D7FF7CF8F3F09F072
:1049B00087CF809105048B7FF0CF8091FD0383FF2B
:1049C0007EC085EC93E00E94AF06809107041F92A1
:1049D0008F9380EC93E09F938F930E9448078EEB18
:1049E00093E00E94AF0680910804282F082E000C47
:1049F000330B3F938F938BEB93E09F938F930E94A6
:104A0000480789EB93E00E94AF0680910904282FA4
:104A1000082E000C330B3F938F9386EB93E09F930C
:104A20008F930E94480784EB93E00E94AF06809129
:104A30000A04282F082E000C330B3F938F9381EB31
:104A400093E09F938F930E9448078FEA93E00E9420
:104A5000AF0680910B04282F082E000C330B3F93D8
:104A60008F938CEA93E09F938F930E94480789EA83
:104A700093E00E94AF06809106041F928F9386EA0E
:104A800093E09F938F930E94480784EA93E00E94EB
:104A9000AF06809105041F928F9381EA93E09F9364
:104AA0008F930E9448078EE993E00E94AF068DB76E
:104AB0009EB74C960FB6F8949EBF0FBE8DBF87E091
:104AC00094E00E94D3110E94C11F9093040480932C
:104AD000030408951F93CF93DF9380910304909173
:104AE00004040E94D91FAC01909106049923D1F0CF
:104AF0002091130130E04217530780F080910804A1
:104B0000C0910904D0910A0410910B04811111C0C5
:104B1000C1117FC0D1117DC011117BC0DF91CF9138
:104B20001F910895209114018AE0289F900111247B
:104B3000E2CF9F3F19F09F5F90930604181624F46C
:104B40000E947223809308048091080487FF05C0A7
:104B50000E9472238195809308041C1624F40E94FD
:104B60007223809309048091090487FF05C00E9485
:104B7000722381958093090460910804662331F1C2
:104B8000C0910904CC2311F1062E000C770B880B81
:104B9000990B0E94853123E333E343E35FE30E94F3
:104BA000E9310E944D31609308046C2FCC0F770BD4
:104BB000880B990B0E94853123E333E343E35FE3E2
:104BC0000E94E9310E944D31609309041D1624F4BE
:104BD0000E94BA2380930A0480910A0487FF05C0CB
:104BE0000E94BA23819580930A04111624F40E942E
:104BF000BA2380930B0480910B0487FF05C00E94A9
:104C0000BA23819580930B04DF91CF911F910C946F
:104C1000DD249F3F09F08FCFA0CFE7E0F4E085E0EF
:104C2000DF011D928A95E9F710920604109205049F
:104C3000089588EE95E00E94AF061F9281E08F9361
:104C40001F9285E08F938AE995E09F938F930E944E
:104C500048070F900F900F900F900F900F900895AE
:104C6000833009F445C028F4813061F0823049F185
:104C70000895853009F46AC008F451C0863009F4FB
:104C80007CC0089580911401262F30E0280F311D3B
:104C90002F3F310594F4680F609314018091140143
:104CA0001F928F9383ED94E09F938F930E94480708
:104CB0000F900F900F900F9008958FEF8093140135
:104CC000EDCF80911301262F30E0280F311D2F3FAB
:104CD000310554F4680F60931301809113011F9202
:104CE0008F9381EC94E0E0CF8FEF80931301F5CFA9
:104CF00080911201262F30E0280F311D2F3F310502
:104D000054F4680F60931201809112011F928F93E7
:104D10008EEA94E0C9CF8FEF80931201F5CF809196
:104D20001101262F30E0280F311D2F3F310554F49B
:104D3000680F60931101809111011F928F9389E98F
:104D400094E0B2CF8FEF80931101F5CF80911001E5
:104D5000262F30E0280F311D2F3F310554F4680F06
:104D600060931001809110011F928F9380E894E06E
:104D70009BCF8FEF80931001F5CF20910F01862FED
:104D800090E0820F911D8F3F910554F4620F609364
:104D90000F0180910F011F928F9385E694E084CFDD
:104DA0008FEF80930F01F5CF8330C9F128F4813064
:104DB00061F0823019F10895853009F452C008F489
:104DC0003FC0863009F45EC00895809114016817D1
:104DD00090F4861B80931401809114011F928F938D
:104DE00086E594E09F938F930E9448070F900F9061
:104DF0000F900F90089510921401EECF809113013F
:104E0000681750F4861B80931301809113011F9241
:104E10008F9384E494E0E6CF10921301F6CF809153
:104E20001201681750F4861B8093120180911201C1
:104E30001F928F9381E394E0D5CF10921201F6CFA9
:104E400080911101681750F4861B809311018091A5
:104E500011011F928F938CE194E0C4CF1092110145
:104E6000F6CF80911001681750F4861B80931001D3
:104E7000809110011F928F9383E094E0B3CF109242
:104E80001001F6CF80910F01681750F4861B8093B4
:104E90000F0180910F011F928F9388EE93E0A2CFB4
:104EA00010920F01F6CFCF93C82F1F928F938DEEE4
:104EB00096E09F938F930E94480761E070E080E046
:104EC00090E004C0660F771F881F991FCA95D2F71C
:104ED0000E94FF1B0F900F900F900F90CF910C949A
:104EE000F517CF938B3109F418C208F04DC08E30FE
:104EF00009F426C2B8F4873009F4F8C148F48630C2
:104F000009F4E2C18CE399E00E94AF06C0E07DC2E3
:104F1000883009F46BC08B30A9F789E197E00E94D3
:104F2000AF06D0C1813109F462C290F4803151F7EB
:104F30008091FD0383FB992790F921E0922790FB54
:104F400083F98093FD0383FF0EC28CE49BE0DFC1F5
:104F5000863109F40BC28931A9F680E39BE00E94F7
:104F6000AF068EEF9AE00E94AF068AEB9AE00E94AD
:104F7000AF068CE89AE00E94AF068AEF99E00E94A3
:104F8000AF068FEC99E0CBCF853361F078F48732B0
:104F900049F028F48E3108F4B5CF8D5104C0893220
:104FA00009F0B0CF80E00E9453278CC1833438F4DD
:104FB0008A3308F030C2883309F4AFCFA3CF8334EB
:104FC00089F3883409F09ECF0E94F5178BEA9BE0A5
:104FD0000E94AF069FEF23ED80E391502040804078
:104FE000E1F700C000000E9428206CC180EC9BE02B
:104FF0000E94AF068CE299E00E94AF060E94572300
:105000001F928F9389E299E09F938F930E944807A4
:1050100087E299E00E94AF060E944E23C82F84E1E8
:1050200099E00E94AF061F92CF938FE099E09F9383
:105030008F930E9448078DE099E00E94AF0683E0BD
:1050400099E00E94AF068C2F81701F928F9380E0B1
:1050500099E09F938F930E9448078EEF98E00E94FB
:10506000AF0684EF98E00E94AF06C1FB882780F965
:105070001F928F9381EF98E09F938F930E94480730
:105080008FEE98E00E94AF0683EE98E00E94AF0694
:10509000C2FB882780F91F928F9380EE98E09F9340
:1050A0008F930E9448078EED98E00E94AF0685ED31
:1050B00098E00E94AF06C3FBCC27C0F91F92CF93A4
:1050C00082ED98E09F938F930E94480780ED98E0CF
:1050D0000E94AF060E946023C82F8CEB98E00E94CC
:1050E000AF061F92CF9387EB98E09F938F930E9418
:1050F000480785EB98E00E94AF068CE998E00E9493
:10510000AF068C2F81701F928F9389E998E09F934F
:105110008F930E9448078DB79EB780960FB6F8947C
:105120009EBF0FBE8DBF87E998E00E94AF0680E862
:1051300098E00E94AF06C1FB882780F91F928F93E9
:105140008DE798E09F938F930E9448078BE798E044
:105150000E94AF0689E698E00E94AF06C2FB88274E
:1051600080F91F928F9386E698E09F938F930E9419
:10517000480784E698E00E94AF0682E598E00E9426
:10518000AF06C3FB882780F91F928F938FE498E0C6
:105190009F938F930E9448078DE498E00E94AF068A
:1051A00083E498E00E94AF06C4FB882780F91F9231
:1051B0008F9380E498E09F938F930E9448078EE33B
:1051C00098E00E94AF068CE298E00E94AF06C5FB13
:1051D000882780F91F928F9389E298E09F938F939D
:1051E0000E94480787E298E00E94AF068BE098E0B3
:1051F0000E94AF06C6FB882780F91F928F9388E034
:1052000098E09F938F930E94480786E098E00E9461
:10521000AF068EEF97E00E94AF06C7FBCC27C0F920
:105220001F92CF938BEF97E09F938F930E94480735
:1052300089EF97E00E94AF060E946923C82F82EE93
:1052400097E00E94AF061F92CF938DED97E09F935A
:105250008F930E9448078DB79EB780960FB6F8943B
:105260009EBF0FBE8DBF8BED97E00E94AF0681ED14
:1052700097E00E94AF068C2F81701F928F938EEC67
:1052800097E09F938F930E9448078CEC97E00E94D1
:10529000AF0683EC97E00E94AF06C6951F92CF93AE
:1052A00080EC97E09F938F930E9448078EEB97E0E6
:1052B0000E94AF068DB79EB708960FB6F8949EBFB2
:1052C0000FBE8DBFC1E0A1C08091FD03817F8E7FA5
:1052D0008093FD0382EF96E00E94AF068CEB9BE08B
:1052E0000E94AF0681E080930D04ECCF8091FD0316
:1052F00080FF0BC08EE99BE00E94AF068091FD030A
:10530000817F8E7F8093FD03DDCF82E99BE00E9449
:10531000AF068091FD038160F5CF8091FD0381FB95
:10532000992790F921E0922790FB81F98093FD0362
:1053300081FF03C085E89BE0EACF87E79BE0EFCDE4
:105340008091FD0382FB992790F921E0922790FB41
:1053500082F98093FD0382FF03C088E69BE0D7CFEC
:1053600088E59BE0DCCD8FE39BE0D9CD81EC99E033
:105370000E94AF060E947F111F928F9387EA99E0E7
:105380009F938F930E94480780910B011F928F93E8
:1053900080E999E09F938F930E944807809187034B
:1053A0001F928F938DE799E09F938F930E944807F8
:1053B00080910C011F928F938AE699E09F938F93BF
:1053C0000E9448070E94CD1F9F938F937F936F93F6
:1053D00083E599E09F938F930E9448078DB79EB70E
:1053E00046960FB6F8949EBF0FBE8DBF6BCF0E943E
:1053F000F517C0910C0181E0C827C0930C01CC23A4
:1054000039F089E499E00E94AF068C2FCF9108957E
:105410008EE399E084CD8953C6CD80E008950C9445
:105420000D2ACF93C82F80910D048130D1F038F030
:10543000823009F44DC010920D0480E010C0E0915C
:105440000D01F0910E0180818232B9F78C2F0E94FC
:105450000F2A81111EC08C2F0E9471278170CF915D
:105460000895E0910D01F0910E018081823271F377
:105470008C2F0E940D2A81111BC0C431D9F060F419
:10548000CB3071F0C031D1F083EE96E00E94AF06D0
:1054900013C081E090E0E2CFC93261F0C833A1F7D8
:1054A00082EF96E00E94AF0689EE96E00E94AF067A
:1054B00081E0D4CF10920D0480E0D0CF0E94192655
:1054C00085EE96E00E94AF0682E080930D04F0CF57
:1054D000C432C8F4CE3108F0BEC0CB30E1F040F4A5
:1054E000C73009F4CFC087E895E00E94AF0626C018
:1054F000C331C1F1C431B9F780910C04882351F153
:1055000010920C040AC0CB3409F4BAC0C8F4C932F2
:1055100099F3C83341F70E94192680910C0488231F
:1055200009F4C7C01F928F9381E895E09F938F93F2
:105530000E9448070F900F900F900F9081E08FCF3F
:10554000C13509F497C0C23509F48EC0CE3459F67E
:105550006AE091C086E995E00E94AF0681E0809301
:105560000D047DCF80E795E00E94AF068EE595E0C3
:105570000E94AF06809114011F928F938BE595E0F6
:105580009F938F930E94480789E595E00E94AF069C
:1055900087E495E00E94AF06809113011F928F93DC
:1055A00084E495E09F938F930E94480782E495E0FE
:1055B0000E94AF0683E395E00E94AF06809112013E
:1055C0001F928F9380E395E09F938F930E944807EB
:1055D0008EE295E00E94AF068DE195E00E94AF0655
:1055E000809111011F928F938AE195E09F938F9391
:1055F0000E94480788E195E00E94AF0683E095E0AD
:105600000E94AF06809110011F928F9380E095E079
:105610009F938F930E9448078EEF94E00E94AF06FD
:1056200087EE94E00E94AF0680910F011F928F9346
:1056300084EE94E09F938F930E94480782EE94E05B
:105640000E94AF068DB79EB748960FB6F8949EBFDE
:105650000FBE8DBF62CFCE51EC2FF0E0EA5CFC4F65
:10566000808180930C0459CF61E080910C040E94EA
:10567000302653CF61E080910C040E94D4264DCF98
:105680006AE0F3CF8EE18093140182E380931301EB
:105690008AE08093120184E18093110188E0809375
:1056A000100188E280930F0189E895E00E94AF061F
:1056B00034CF8EE795E019CFE1E8F0E08081886093
:1056C00080838081816080838FB7F89493E090938A
:1056D000890090ED909388008FBF0C94DF2FEFE648
:1056E000F0E080818260808381E0809326040C94C6
:1056F000FA2FEFE6F0E080818D7F80831092260400
:1057000080E00E94ED2F81E00E94ED2F82E00E9458
:10571000ED2F809126040C94FA2F80912504876048
:105720008093250408951092250480E00E94ED2FB7
:1057300081E00E94ED2F82E00E94ED2F80912604EF
:105740000C94FA2FEFE1F4E0808381838283089543
:10575000E82FF0E0E15EFB4F8081482F50E02FEF13
:1057600030E0261B3109241735071CF48FEF8083A6
:105770000895860FFCCFE82FF0E0E15EFB4F8081BB
:10578000861710F410820895861B808308958091F7
:105790001E04876080931E04089510921E040895CD
:1057A00090911D0421E030E001C0220F8A95EAF7B4
:1057B000662321F0922B90931D0408952095922347
:1057C000FACFCF93C82F682F80E00E94D02B6C2F88
:1057D00081E00E94D02B6C2F82E0CF910C94D02BD3
:1057E00080931C04089580911804876080931804A6
:1057F00008951092180410921704089580931604C7
:1058000008951F920F920FB60F921124BF92CF925C
:10581000DF92EF92FF920F931F932F933F934F933B
:105820005F936F937F938F939F93AF93BF93CF9328
:10583000DF93EF93FF93809111048F5F80931104A6
:1058400092E2E92E94E0F92E0FE114E06801C0E045
:10585000D0E0BC2E8091250490E00C2E02C09695DD
:1058600087950A94E2F780FF18C080911104811196
:105870000BC0F7018081882319F08C2F0E94E02F44
:10588000F6018081F7018083F701908180911104F6
:10589000981303C08B2D0E94ED2F2196FFEFEF1A76
:1058A000FF0A2FEFC21AD20AC330D10591F68091B8
:1058B00010048F5F8034E0F480931004FF91EF9127
:1058C000DF91CF91BF91AF919F918F917F916F9118
:1058D0005F914F913F912F911F910F91FF90EF900A
:1058E000DF90CF90BF900F900FBE0F901F90189534
:1058F00010921004C0901E04C1105AC040911804A8
:105900004423E1F280910E048F5F80930E04909106
:105910001604981798F610920E0490911204509164
:105920001704A3E1B4E020E030E0C1E0D0E0642F50
:1059300070E0022E02C0769567950A94E2F760FF48
:1059400028C08C91E82FF0E0E553F44F6491F80102
:105950006083692F70E0022E02C0769567950A94E5
:10596000E2F760FF66C0811161C0BE01022E01C076
:10597000660F0A94EAF760959623E52FF0E0022E71
:1059800002C0F695E7950A94E2F7E0FF02C04623CD
:1059900056232F5F3F4F11960F5F1F4F2330310566
:1059A00031F640931804909312045093170486CF55
:1059B00080910F048F5F80930F0490911C049817BF
:1059C00008F09CCF10920F0489E1E82E84E0F82EB5
:1059D000C0E0D0E0D12CC6010C2E02C09695879570
:1059E0000A94E2F780FF06C0F7018081882351F016
:1059F000815080832196FFEFEF1AFF0AC330D10553
:105A000051F77CCF80911D0490E00C2E02C096953A
:105A100087950A94E2F761E080FF04C08C2F0E9412
:105A2000BB2BE8CF8C2F0E94A82BE4CF81508C9306
:105A3000B0CF8F3741F4BE01022E01C0660F0A9429
:105A4000EAF7962BA6CF8F5FF2CF0E9443238111F6
:105A500002C00E941E230E9469238093410480FF9C
:105A600003C086950C943B0980E0FCCF90914104E3
:105A7000892F817090FF25C09695292F30E028301E
:105A800031053CF49F5F990F892B809341040E945C
:105A90006D238091FD0380FF0FC0809141048695A6
:105AA0001F928F9384E99CE09F938F930E944807F5
:105AB0000F900F900F900F908091410486950C9459
:105AC0003B09089590914104892F817090FF25C072
:105AD0009695292F30E0223031053CF09158990FEE
